{
  "_format": "hh-sol-artifact-1",
  "contractName": "Delegated",
  "sourceName": "contracts/ERC721B/Delegated.sol",
  "abi": [
    {
      "inputs": [],
      "stateMutability": "nonpayable",
      "type": "constructor"
    },
    {
      "anonymous": false,
      "inputs": [
        {
          "indexed": true,
          "internalType": "address",
          "name": "previousOwner",
          "type": "address"
        },
        {
          "indexed": true,
          "internalType": "address",
          "name": "newOwner",
          "type": "address"
        }
      ],
      "name": "OwnershipTransferred",
      "type": "event"
    },
    {
      "inputs": [
        {
          "internalType": "address",
          "name": "addr",
          "type": "address"
        }
      ],
      "name": "isDelegate",
      "outputs": [
        {
          "internalType": "bool",
          "name": "",
          "type": "bool"
        }
      ],
      "stateMutability": "view",
      "type": "function"
    },
    {
      "inputs": [],
      "name": "owner",
      "outputs": [
        {
          "internalType": "address",
          "name": "",
          "type": "address"
        }
      ],
      "stateMutability": "view",
      "type": "function"
    },
    {
      "inputs": [],
      "name": "renounceOwnership",
      "outputs": [],
      "stateMutability": "nonpayable",
      "type": "function"
    },
    {
      "inputs": [
        {
          "internalType": "address",
          "name": "addr",
          "type": "address"
        },
        {
          "internalType": "bool",
          "name": "isDelegate_",
          "type": "bool"
        }
      ],
      "name": "setDelegate",
      "outputs": [],
      "stateMutability": "nonpayable",
      "type": "function"
    },
    {
      "inputs": [
        {
          "internalType": "address",
          "name": "newOwner",
          "type": "address"
        }
      ],
      "name": "transferOwnership",
      "outputs": [],
      "stateMutability": "nonpayable",
      "type": "function"
    }
  ],
  "bytecode": "0x608060405234801561001057600080fd5b5061002161001c61005b565b61005f565b600180600061002e6100af565b6001600160a01b031681526020810191909152604001600020805460ff19169115159190911790556100be565b3390565b600080546001600160a01b038381166001600160a01b0319831681178455604051919092169283917f8be0079c531659141344cd1fd0a4f28419497f9722a3daafe3b4186f6b6457e09190a35050565b6000546001600160a01b031690565b610470806100cd6000396000f3fe608060405234801561001057600080fd5b50600436106100575760003560e01c8063077796271461005c5780634a994eef14610085578063715018a61461009a5780638da5cb5b146100a2578063f2fde38b146100b7575b600080fd5b61006f61006a366004610345565b6100ca565b60405161007c91906103b4565b60405180910390f35b610098610093366004610366565b610137565b005b6100986101a1565b6100aa6101ec565b60405161007c91906103a0565b6100986100c5366004610345565b6101fb565b60006100d461026c565b6001600160a01b03166100e56101ec565b6001600160a01b0316146101145760405162461bcd60e51b815260040161010b90610405565b60405180910390fd5b506001600160a01b03811660009081526001602052604090205460ff165b919050565b61013f61026c565b6001600160a01b03166101506101ec565b6001600160a01b0316146101765760405162461bcd60e51b815260040161010b90610405565b6001600160a01b03919091166000908152600160205260409020805460ff1916911515919091179055565b6101a961026c565b6001600160a01b03166101ba6101ec565b6001600160a01b0316146101e05760405162461bcd60e51b815260040161010b90610405565b6101ea6000610270565b565b6000546001600160a01b031690565b61020361026c565b6001600160a01b03166102146101ec565b6001600160a01b03161461023a5760405162461bcd60e51b815260040161010b90610405565b6001600160a01b0381166000908152600160208190526040909120805460ff19169091179055610269816102c0565b50565b3390565b600080546001600160a01b038381166001600160a01b0319831681178455604051919092169283917f8be0079c531659141344cd1fd0a4f28419497f9722a3daafe3b4186f6b6457e09190a35050565b6102c861026c565b6001600160a01b03166102d96101ec565b6001600160a01b0316146102ff5760405162461bcd60e51b815260040161010b90610405565b6001600160a01b0381166103255760405162461bcd60e51b815260040161010b906103bf565b61026981610270565b80356001600160a01b038116811461013257600080fd5b600060208284031215610356578081fd5b61035f8261032e565b9392505050565b60008060408385031215610378578081fd5b6103818361032e565b915060208301358015158114610395578182fd5b809150509250929050565b6001600160a01b0391909116815260200190565b901515815260200190565b60208082526026908201527f4f776e61626c653a206e6577206f776e657220697320746865207a65726f206160408201526564647265737360d01b606082015260800190565b6020808252818101527f4f776e61626c653a2063616c6c6572206973206e6f7420746865206f776e657260408201526060019056fea2646970667358221220eb805223da4abd165b4a88060c0488c400ddb92067308117092931a5d070f3ec64736f6c63430008000033",
  "linkReferences": {},
  "deployedLinkReferences": {}
}